{
  "contractName": "FlashLoanReceiver",
  "abi": [
    {
      "inputs": [
        {
          "internalType": "contract ILendingPoolAddressesProvider",
          "name": "_addressProvider",
          "type": "address"
        }
      ],
      "stateMutability": "nonpayable",
      "type": "constructor"
    },
    {
      "inputs": [],
      "name": "ADDRESSES_PROVIDER",
      "outputs": [
        {
          "internalType": "contract ILendingPoolAddressesProvider",
          "name": "",
          "type": "address"
        }
      ],
      "stateMutability": "view",
      "type": "function"
    },
    {
      "inputs": [],
      "name": "LENDING_POOL",
      "outputs": [
        {
          "internalType": "contract ILendingPool",
          "name": "",
          "type": "address"
        }
      ],
      "stateMutability": "view",
      "type": "function"
    },
    {
      "inputs": [
        {
          "internalType": "address[]",
          "name": "assets",
          "type": "address[]"
        },
        {
          "internalType": "uint256[]",
          "name": "amounts",
          "type": "uint256[]"
        },
        {
          "internalType": "uint256[]",
          "name": "premiums",
          "type": "uint256[]"
        },
        {
          "internalType": "address",
          "name": "initiator",
          "type": "address"
        },
        {
          "internalType": "bytes",
          "name": "params",
          "type": "bytes"
        }
      ],
      "name": "executeOperation",
      "outputs": [
        {
          "internalType": "bool",
          "name": "",
          "type": "bool"
        }
      ],
      "stateMutability": "nonpayable",
      "type": "function"
    }
  ],
  "bytecode": "0x60c060405234801561001057600080fd5b506040516104eb3803806104eb8339818101604052602081101561003357600080fd5b50516001600160601b0319606082901b1660805260408051630261bf8b60e01b8152905182916001600160a01b03831691630261bf8b91600480820192602092909190829003018186803b15801561008a57600080fd5b505afa15801561009e573d6000803e3d6000fd5b505050506040513d60208110156100b457600080fd5b5051606081811b6001600160601b03191660a052608051901c92506001600160a01b031690506103ef6100fc6000398061028852806103365250806101f352506103ef6000f3fe608060405234801561001057600080fd5b50600436106100415760003560e01c80630542975c14610046578063920f5c841461006a578063b4dcfc77146101e9575b600080fd5b61004e6101f1565b604080516001600160a01b039092168252519081900360200190f35b6101d5600480360360a081101561008057600080fd5b810190602081018135600160201b81111561009a57600080fd5b8201836020820111156100ac57600080fd5b803590602001918460208302840111600160201b831117156100cd57600080fd5b919390929091602081019035600160201b8111156100ea57600080fd5b8201836020820111156100fc57600080fd5b803590602001918460208302840111600160201b8311171561011d57600080fd5b919390929091602081019035600160201b81111561013a57600080fd5b82018360208201111561014c57600080fd5b803590602001918460208302840111600160201b8311171561016d57600080fd5b919390926001600160a01b0383351692604081019060200135600160201b81111561019757600080fd5b8201836020820111156101a957600080fd5b803590602001918460018302840111600160201b831117156101ca57600080fd5b509092509050610215565b604080519115158252519081900360200190f35b61004e610334565b7f000000000000000000000000000000000000000000000000000000000000000081565b6000805b8981101561032357600061025a88888481811061023257fe5b905060200201358b8b8581811061024557fe5b9050602002013561035890919063ffffffff16565b90508b8b8381811061026857fe5b905060200201356001600160a01b03166001600160a01b031663095ea7b37f0000000000000000000000000000000000000000000000000000000000000000836040518363ffffffff1660e01b815260040180836001600160a01b0316815260200182815260200192505050602060405180830381600087803b1580156102ee57600080fd5b505af1158015610302573d6000803e3d6000fd5b505050506040513d602081101561031857600080fd5b505050600101610219565b5060019a9950505050505050505050565b7f000000000000000000000000000000000000000000000000000000000000000081565b6000828201838110156103b2576040805162461bcd60e51b815260206004820152601b60248201527f536166654d6174683a206164646974696f6e206f766572666c6f770000000000604482015290519081900360640190fd5b939250505056fea26469706673582212207cdab15ab09eae0d0eb7939930c0f83e8c2851001b7a716232afd0ca0d33b4e264736f6c634300060c0033",
  "immutableReferences": {
    "519": [
      {
        "length": 32,
        "start": 499
      }
    ],
    "522": [
      {
        "length": 32,
        "start": 648
      },
      {
        "length": 32,
        "start": 822
      }
    ]
  },
  "source": "// SPDX-License-Identifier: MIT\npragma solidity ^0.6.12;\n\nimport \"@aave/protocol-v2/contracts/flashloan/base/FlashLoanReceiverBase.sol\";\nimport \"@aave/protocol-v2/contracts/interfaces/ILendingPoolAddressesProvider.sol\";\nimport \"@aave/protocol-v2/contracts/dependencies/openzeppelin/contracts/IERC20.sol\";\n\ncontract FlashLoanReceiver is FlashLoanReceiverBase {\n\n    constructor(ILendingPoolAddressesProvider _addressProvider) FlashLoanReceiverBase(_addressProvider) public {\n        // Initialization code\n    }\n\n    function executeOperation(\n        address[] calldata assets,\n        uint256[] calldata amounts,\n        uint256[] calldata premiums,\n        address initiator,\n        bytes calldata params\n    )\n        external\n        override\n        returns (bool)\n    {\n        // Implement your logic here\n\n        // Repay the loan\n        for (uint256 i = 0; i < assets.length; i++) {\n            uint256 amountOwing = amounts[i].add(premiums[i]);\n            IERC20(assets[i]).approve(address(LENDING_POOL), amountOwing);\n        }\n\n        return true;\n    }\n}\n\n",
  "sourcePath": "/Users/ghost/Downloads/V2-V3-migration-helpers/flashLoanTruffle/contracts/FlashLoanReceiver.sol",
  "compiler": {
    "name": "solc",
    "version": "0.6.12+commit.27d51765.Emscripten.clang"
  },
  "schemaVersion": "3.4.16",
  "updatedAt": "2024-06-10T01:33:19.534Z",
  "devdoc": {
    "kind": "dev",
    "methods": {},
    "version": 1
  },
  "userdoc": {
    "kind": "user",
    "methods": {},
    "version": 1
  }
}